{
  "contractName": "JSETokenSale",
  "abi": [
    {
      "constant": true,
      "inputs": [],
      "name": "operatorAddress",
      "outputs": [
        {
          "name": "",
          "type": "address"
        }
      ],
      "payable": false,
      "stateMutability": "view",
      "type": "function"
    },
    {
      "constant": true,
      "inputs": [],
      "name": "PURCHASE_DIVIDER",
      "outputs": [
        {
          "name": "",
          "type": "uint256"
        }
      ],
      "payable": false,
      "stateMutability": "view",
      "type": "function"
    },
    {
      "constant": true,
      "inputs": [],
      "name": "CONTRIBUTION_MAX",
      "outputs": [
        {
          "name": "",
          "type": "uint256"
        }
      ],
      "payable": false,
      "stateMutability": "view",
      "type": "function"
    },
    {
      "constant": true,
      "inputs": [],
      "name": "DURATION",
      "outputs": [
        {
          "name": "",
          "type": "uint256"
        }
      ],
      "payable": false,
      "stateMutability": "view",
      "type": "function"
    },
    {
      "constant": true,
      "inputs": [],
      "name": "totalPresaleBonus",
      "outputs": [
        {
          "name": "",
          "type": "uint256"
        }
      ],
      "payable": false,
      "stateMutability": "view",
      "type": "function"
    },
    {
      "constant": false,
      "inputs": [
        {
          "name": "_adminAddress",
          "type": "address"
        }
      ],
      "name": "setAdminAddress",
      "outputs": [
        {
          "name": "",
          "type": "bool"
        }
      ],
      "payable": false,
      "stateMutability": "nonpayable",
      "type": "function"
    },
    {
      "constant": false,
      "inputs": [
        {
          "name": "_operatorAddress",
          "type": "address"
        }
      ],
      "name": "setOperatorAddress",
      "outputs": [
        {
          "name": "",
          "type": "bool"
        }
      ],
      "payable": false,
      "stateMutability": "nonpayable",
      "type": "function"
    },
    {
      "constant": true,
      "inputs": [],
      "name": "TOKENS_SALE",
      "outputs": [
        {
          "name": "",
          "type": "uint256"
        }
      ],
      "payable": false,
      "stateMutability": "view",
      "type": "function"
    },
    {
      "constant": false,
      "inputs": [],
      "name": "unpause",
      "outputs": [],
      "payable": false,
      "stateMutability": "nonpayable",
      "type": "function"
    },
    {
      "constant": true,
      "inputs": [],
      "name": "weiRaised",
      "outputs": [
        {
          "name": "",
          "type": "uint256"
        }
      ],
      "payable": false,
      "stateMutability": "view",
      "type": "function"
    },
    {
      "constant": true,
      "inputs": [],
      "name": "wallet",
      "outputs": [
        {
          "name": "",
          "type": "address"
        }
      ],
      "payable": false,
      "stateMutability": "view",
      "type": "function"
    },
    {
      "constant": true,
      "inputs": [],
      "name": "tokenContract",
      "outputs": [
        {
          "name": "",
          "type": "address"
        }
      ],
      "payable": false,
      "stateMutability": "view",
      "type": "function"
    },
    {
      "constant": true,
      "inputs": [],
      "name": "CONTRIBUTION_MAX_NO_WHITELIST",
      "outputs": [
        {
          "name": "",
          "type": "uint256"
        }
      ],
      "payable": false,
      "stateMutability": "view",
      "type": "function"
    },
    {
      "constant": true,
      "inputs": [],
      "name": "TOKEN_DECIMALS",
      "outputs": [
        {
          "name": "",
          "type": "uint8"
        }
      ],
      "payable": false,
      "stateMutability": "view",
      "type": "function"
    },
    {
      "constant": true,
      "inputs": [],
      "name": "paused",
      "outputs": [
        {
          "name": "",
          "type": "bool"
        }
      ],
      "payable": false,
      "stateMutability": "view",
      "type": "function"
    },
    {
      "constant": true,
      "inputs": [],
      "name": "totalTokensSold",
      "outputs": [
        {
          "name": "",
          "type": "uint256"
        }
      ],
      "payable": false,
      "stateMutability": "view",
      "type": "function"
    },
    {
      "constant": false,
      "inputs": [],
      "name": "renounceOwnership",
      "outputs": [],
      "payable": false,
      "stateMutability": "nonpayable",
      "type": "function"
    },
    {
      "constant": false,
      "inputs": [],
      "name": "pause",
      "outputs": [],
      "payable": false,
      "stateMutability": "nonpayable",
      "type": "function"
    },
    {
      "constant": true,
      "inputs": [],
      "name": "DECIMALSFACTOR",
      "outputs": [
        {
          "name": "",
          "type": "uint256"
        }
      ],
      "payable": false,
      "stateMutability": "view",
      "type": "function"
    },
    {
      "constant": true,
      "inputs": [],
      "name": "owner",
      "outputs": [
        {
          "name": "",
          "type": "address"
        }
      ],
      "payable": false,
      "stateMutability": "view",
      "type": "function"
    },
    {
      "constant": true,
      "inputs": [
        {
          "name": "",
          "type": "address"
        }
      ],
      "name": "whitelist",
      "outputs": [
        {
          "name": "",
          "type": "bool"
        }
      ],
      "payable": false,
      "stateMutability": "view",
      "type": "function"
    },
    {
      "constant": true,
      "inputs": [],
      "name": "totalPresaleBase",
      "outputs": [
        {
          "name": "",
          "type": "uint256"
        }
      ],
      "payable": false,
      "stateMutability": "view",
      "type": "function"
    },
    {
      "constant": true,
      "inputs": [],
      "name": "TOKENS_DISTRIBUTED",
      "outputs": [
        {
          "name": "",
          "type": "uint256"
        }
      ],
      "payable": false,
      "stateMutability": "view",
      "type": "function"
    },
    {
      "constant": true,
      "inputs": [],
      "name": "publicSaleStarted",
      "outputs": [
        {
          "name": "",
          "type": "bool"
        }
      ],
      "payable": false,
      "stateMutability": "view",
      "type": "function"
    },
    {
      "constant": true,
      "inputs": [],
      "name": "tokensPerKEther",
      "outputs": [
        {
          "name": "",
          "type": "uint256"
        }
      ],
      "payable": false,
      "stateMutability": "view",
      "type": "function"
    },
    {
      "constant": true,
      "inputs": [],
      "name": "TOKENS_MAX",
      "outputs": [
        {
          "name": "",
          "type": "uint256"
        }
      ],
      "payable": false,
      "stateMutability": "view",
      "type": "function"
    },
    {
      "constant": true,
      "inputs": [],
      "name": "bonusIncreasePercentage",
      "outputs": [
        {
          "name": "",
          "type": "uint256"
        }
      ],
      "payable": false,
      "stateMutability": "view",
      "type": "function"
    },
    {
      "constant": true,
      "inputs": [],
      "name": "finalized",
      "outputs": [
        {
          "name": "",
          "type": "bool"
        }
      ],
      "payable": false,
      "stateMutability": "view",
      "type": "function"
    },
    {
      "constant": true,
      "inputs": [],
      "name": "CONTRIBUTION_MIN",
      "outputs": [
        {
          "name": "",
          "type": "uint256"
        }
      ],
      "payable": false,
      "stateMutability": "view",
      "type": "function"
    },
    {
      "constant": false,
      "inputs": [
        {
          "name": "_newOwner",
          "type": "address"
        }
      ],
      "name": "transferOwnership",
      "outputs": [],
      "payable": false,
      "stateMutability": "nonpayable",
      "type": "function"
    },
    {
      "constant": true,
      "inputs": [],
      "name": "TOKENS_PER_KETHER",
      "outputs": [
        {
          "name": "",
          "type": "uint256"
        }
      ],
      "payable": false,
      "stateMutability": "view",
      "type": "function"
    },
    {
      "constant": true,
      "inputs": [],
      "name": "adminAddress",
      "outputs": [
        {
          "name": "",
          "type": "address"
        }
      ],
      "payable": false,
      "stateMutability": "view",
      "type": "function"
    },
    {
      "inputs": [
        {
          "name": "_tokenContract",
          "type": "address"
        },
        {
          "name": "_wallet",
          "type": "address"
        }
      ],
      "payable": false,
      "stateMutability": "nonpayable",
      "type": "constructor"
    },
    {
      "payable": true,
      "stateMutability": "payable",
      "type": "fallback"
    },
    {
      "anonymous": false,
      "inputs": [],
      "name": "Initialized",
      "type": "event"
    },
    {
      "anonymous": false,
      "inputs": [
        {
          "indexed": true,
          "name": "_account",
          "type": "address"
        },
        {
          "indexed": false,
          "name": "_baseTokens",
          "type": "uint256"
        },
        {
          "indexed": false,
          "name": "_bonusTokens",
          "type": "uint256"
        }
      ],
      "name": "PresaleAdded",
      "type": "event"
    },
    {
      "anonymous": false,
      "inputs": [
        {
          "indexed": true,
          "name": "_account",
          "type": "address"
        }
      ],
      "name": "WhitelistUpdated",
      "type": "event"
    },
    {
      "anonymous": false,
      "inputs": [
        {
          "indexed": true,
          "name": "_beneficiary",
          "type": "address"
        },
        {
          "indexed": false,
          "name": "_cost",
          "type": "uint256"
        },
        {
          "indexed": false,
          "name": "_tokens",
          "type": "uint256"
        },
        {
          "indexed": false,
          "name": "_totalSold",
          "type": "uint256"
        }
      ],
      "name": "TokensPurchased",
      "type": "event"
    },
    {
      "anonymous": false,
      "inputs": [
        {
          "indexed": false,
          "name": "_amount",
          "type": "uint256"
        }
      ],
      "name": "TokensPerKEtherUpdated",
      "type": "event"
    },
    {
      "anonymous": false,
      "inputs": [
        {
          "indexed": false,
          "name": "_newWallet",
          "type": "address"
        }
      ],
      "name": "WalletChanged",
      "type": "event"
    },
    {
      "anonymous": false,
      "inputs": [
        {
          "indexed": false,
          "name": "_amount",
          "type": "uint256"
        }
      ],
      "name": "TokensReclaimed",
      "type": "event"
    },
    {
      "anonymous": false,
      "inputs": [
        {
          "indexed": false,
          "name": "_amount",
          "type": "uint256"
        }
      ],
      "name": "UnsoldTokensBurnt",
      "type": "event"
    },
    {
      "anonymous": false,
      "inputs": [
        {
          "indexed": false,
          "name": "_oldPercentage",
          "type": "uint256"
        },
        {
          "indexed": false,
          "name": "_newPercentage",
          "type": "uint256"
        }
      ],
      "name": "BonusIncreasePercentageChanged",
      "type": "event"
    },
    {
      "anonymous": false,
      "inputs": [],
      "name": "Finalized",
      "type": "event"
    },
    {
      "anonymous": false,
      "inputs": [],
      "name": "Pause",
      "type": "event"
    },
    {
      "anonymous": false,
      "inputs": [],
      "name": "Unpause",
      "type": "event"
    },
    {
      "anonymous": false,
      "inputs": [
        {
          "indexed": true,
          "name": "_newAddress",
          "type": "address"
        }
      ],
      "name": "AdminAddressChanged",
      "type": "event"
    },
    {
      "anonymous": false,
      "inputs": [
        {
          "indexed": true,
          "name": "_newAddress",
          "type": "address"
        }
      ],
      "name": "OperatorAddressChanged",
      "type": "event"
    },
    {
      "anonymous": false,
      "inputs": [
        {
          "indexed": true,
          "name": "previousOwner",
          "type": "address"
        }
      ],
      "name": "OwnershipRenounced",
      "type": "event"
    },
    {
      "anonymous": false,
      "inputs": [
        {
          "indexed": true,
          "name": "previousOwner",
          "type": "address"
        },
        {
          "indexed": true,
          "name": "newOwner",
          "type": "address"
        }
      ],
      "name": "OwnershipTransferred",
      "type": "event"
    },
    {
      "constant": false,
      "inputs": [],
      "name": "initialize",
      "outputs": [
        {
          "name": "",
          "type": "bool"
        }
      ],
      "payable": false,
      "stateMutability": "nonpayable",
      "type": "function"
    },
    {
      "constant": false,
      "inputs": [
        {
          "name": "_wallet",
          "type": "address"
        }
      ],
      "name": "changeWallet",
      "outputs": [
        {
          "name": "",
          "type": "bool"
        }
      ],
      "payable": false,
      "stateMutability": "nonpayable",
      "type": "function"
    },
    {
      "constant": true,
      "inputs": [],
      "name": "currentTime",
      "outputs": [
        {
          "name": "_currentTime",
          "type": "uint256"
        }
      ],
      "payable": false,
      "stateMutability": "view",
      "type": "function"
    },
    {
      "constant": false,
      "inputs": [
        {
          "name": "_account",
          "type": "address"
        }
      ],
      "name": "updateWhitelist",
      "outputs": [
        {
          "name": "",
          "type": "bool"
        }
      ],
      "payable": false,
      "stateMutability": "nonpayable",
      "type": "function"
    },
    {
      "constant": false,
      "inputs": [
        {
          "name": "_tokensPerKEther",
          "type": "uint256"
        }
      ],
      "name": "setTokensPerKEther",
      "outputs": [
        {
          "name": "",
          "type": "bool"
        }
      ],
      "payable": false,
      "stateMutability": "nonpayable",
      "type": "function"
    },
    {
      "constant": false,
      "inputs": [],
      "name": "buyTokens",
      "outputs": [
        {
          "name": "",
          "type": "bool"
        }
      ],
      "payable": true,
      "stateMutability": "payable",
      "type": "function"
    },
    {
      "constant": false,
      "inputs": [
        {
          "name": "_amount",
          "type": "uint256"
        }
      ],
      "name": "reclaimTokens",
      "outputs": [
        {
          "name": "",
          "type": "bool"
        }
      ],
      "payable": false,
      "stateMutability": "nonpayable",
      "type": "function"
    },
    {
      "constant": false,
      "inputs": [
        {
          "name": "_newPercentage",
          "type": "uint256"
        }
      ],
      "name": "changeBonusIncreasePercentage",
      "outputs": [
        {
          "name": "",
          "type": "bool"
        }
      ],
      "payable": false,
      "stateMutability": "nonpayable",
      "type": "function"
    },
    {
      "constant": false,
      "inputs": [],
      "name": "finalize",
      "outputs": [
        {
          "name": "",
          "type": "bool"
        }
      ],
      "payable": false,
      "stateMutability": "nonpayable",
      "type": "function"
    },
    {
      "constant": false,
      "inputs": [],
      "name": "startPublicSale",
      "outputs": [
        {
          "name": "",
          "type": "bool"
        }
      ],
      "payable": false,
      "stateMutability": "nonpayable",
      "type": "function"
    }
  ],
  "bytecode": "0x60806040526000600260146101000a81548160ff021916908315150217905550600a60045534801561003057600080fd5b5060405160408061287b8339810180604052810190808051906020019092919080519060200190929190505050336000806101000a81548173ffffffffffffffffffffffffffffffffffffffff021916908373ffffffffffffffffffffffffffffffffffffffff16021790555033600260006101000a81548173ffffffffffffffffffffffffffffffffffffffff021916908373ffffffffffffffffffffffffffffffffffffffff160217905550600073ffffffffffffffffffffffffffffffffffffffff168273ffffffffffffffffffffffffffffffffffffffff161415151561011a57600080fd5b600073ffffffffffffffffffffffffffffffffffffffff168173ffffffffffffffffffffffffffffffffffffffff161415151561015657600080fd5b60006306422c4011151561016957600080fd5b80600560006101000a81548173ffffffffffffffffffffffffffffffffffffffff021916908373ffffffffffffffffffffffffffffffffffffffff1602179055506000600260156101000a81548160ff0219169083151502179055506000600260166101000a81548160ff0219169083151502179055506306422c4060038190555081600660006101000a81548173ffffffffffffffffffffffffffffffffffffffff021916908373ffffffffffffffffffffffffffffffffffffffff160217905550505061263e8061023d6000396000f300608060405260043610610204576000357c0100000000000000000000000000000000000000000000000000000000900463ffffffff1680630c1c972a146102645780630e9d02cc14610293578063127effb2146102d857806317393f041461032f5780631a2309f01461035a5780631be05289146103855780632820d6a5146103b05780632c1e816d146103db5780632d897146146104365780632f1d5a601461047b5780633280922b146104d65780633d0f963e146105015780633f4ba83a1461055c5780634042b66f146105735780634bb278f31461059e578063521eb273146105cd57806355a373d6146106245780635655e37b1461067b5780635b7f415c146106a65780635c975abb146106d757806363b2011714610706578063715018a6146107315780637760da7f146107485780638129fc1c1461078d5780638456cb59146107bc5780638bc04eb7146107d35780638da5cb5b146107fe57806398b9a2dc146108555780639b19251a146108b0578063a09b7e2b1461090b578063a1013abb14610936578063a2e9147714610961578063a5bc770c14610990578063a67e91a8146109bb578063af77040e146109e6578063b3f05b9714610a11578063ba9bb82714610a40578063d0febe4c14610a6b578063d18e81b314610a8d578063f2fde38b14610ab8578063f527c85614610afb578063fc6f946814610b26575b600260149054906101000a900460ff1615151561022057600080fd5b6000151561022c610b7d565b151514801561024e575060011515600260169054906101000a900460ff161515145b151561025957600080fd5b610261610ba5565b50005b34801561027057600080fd5b50610279611086565b604051808215151515815260200191505060405180910390f35b34801561029f57600080fd5b506102be600480360381019080803590602001909291905050506110f7565b604051808215151515815260200191505060405180910390f35b3480156102e457600080fd5b506102ed61119c565b604051808273ffffffffffffffffffffffffffffffffffffffff1673ffffffffffffffffffffffffffffffffffffffff16815260200191505060405180910390f35b34801561033b57600080fd5b506103446111c2565b6040518082815260200191505060405180910390f35b34801561036657600080fd5b5061036f6111d3565b6040518082815260200191505060405180910390f35b34801561039157600080fd5b5061039a6111e1565b6040518082815260200191505060405180910390f35b3480156103bc57600080fd5b506103c56111e8565b6040518082815260200191505060405180910390f35b3480156103e757600080fd5b5061041c600480360381019080803573ffffffffffffffffffffffffffffffffffffffff1690602001909291905050506111ee565b604051808215151515815260200191505060405180910390f35b34801561044257600080fd5b506104616004803603810190808035906020019092919050505061134d565b604051808215151515815260200191505060405180910390f35b34801561048757600080fd5b506104bc600480360381019080803573ffffffffffffffffffffffffffffffffffffffff1690602001909291905050506113f2565b604051808215151515815260200191505060405180910390f35b3480156104e257600080fd5b506104eb611551565b6040518082815260200191505060405180910390f35b34801561050d57600080fd5b50610542600480360381019080803573ffffffffffffffffffffffffffffffffffffffff169060200190929190505050611563565b604051808215151515815260200191505060405180910390f35b34801561056857600080fd5b5061057161167d565b005b34801561057f57600080fd5b5061058861173c565b6040518082815260200191505060405180910390f35b3480156105aa57600080fd5b506105b3611742565b604051808215151515815260200191505060405180910390f35b3480156105d957600080fd5b506105e2611765565b604051808273ffffffffffffffffffffffffffffffffffffffff1673ffffffffffffffffffffffffffffffffffffffff16815260200191505060405180910390f35b34801561063057600080fd5b5061063961178b565b604051808273ffffffffffffffffffffffffffffffffffffffff1673ffffffffffffffffffffffffffffffffffffffff16815260200191505060405180910390f35b34801561068757600080fd5b506106906117b1565b6040518082815260200191505060405180910390f35b3480156106b257600080fd5b506106bb6117bd565b604051808260ff1660ff16815260200191505060405180910390f35b3480156106e357600080fd5b506106ec6117c2565b604051808215151515815260200191505060405180910390f35b34801561071257600080fd5b5061071b6117d5565b6040518082815260200191505060405180910390f35b34801561073d57600080fd5b506107466117db565b005b34801561075457600080fd5b50610773600480360381019080803590602001909291905050506118dd565b604051808215151515815260200191505060405180910390f35b34801561079957600080fd5b506107a2611c66565b604051808215151515815260200191505060405180910390f35b3480156107c857600080fd5b506107d1611e41565b005b3480156107df57600080fd5b506107e8611f01565b6040518082815260200191505060405180910390f35b34801561080a57600080fd5b50610813611f0c565b604051808273ffffffffffffffffffffffffffffffffffffffff1673ffffffffffffffffffffffffffffffffffffffff16815260200191505060405180910390f35b34801561086157600080fd5b50610896600480360381019080803573ffffffffffffffffffffffffffffffffffffffff169060200190929190505050611f31565b604051808215151515815260200191505060405180910390f35b3480156108bc57600080fd5b506108f1600480360381019080803573ffffffffffffffffffffffffffffffffffffffff1690602001909291905050506120ea565b604051808215151515815260200191505060405180910390f35b34801561091757600080fd5b5061092061210a565b6040518082815260200191505060405180910390f35b34801561094257600080fd5b5061094b612110565b6040518082815260200191505060405180910390f35b34801561096d57600080fd5b50610976612122565b604051808215151515815260200191505060405180910390f35b34801561099c57600080fd5b506109a5612135565b6040518082815260200191505060405180910390f35b3480156109c757600080fd5b506109d061213b565b6040518082815260200191505060405180910390f35b3480156109f257600080fd5b506109fb61214d565b6040518082815260200191505060405180910390f35b348015610a1d57600080fd5b50610a26612153565b604051808215151515815260200191505060405180910390f35b348015610a4c57600080fd5b50610a55612166565b6040518082815260200191505060405180910390f35b610a73610ba5565b604051808215151515815260200191505060405180910390f35b348015610a9957600080fd5b50610aa2612172565b6040518082815260200191505060405180910390f35b348015610ac457600080fd5b50610af9600480360381019080803573ffffffffffffffffffffffffffffffffffffffff16906020019092919050505061217a565b005b348015610b0757600080fd5b50610b106121e1565b6040518082815260200191505060405180910390f35b348015610b3257600080fd5b50610b3b6121e9565b604051808273ffffffffffffffffffffffffffffffffffffffff1673ffffffffffffffffffffffffffffffffffffffff16815260200191505060405180910390f35b6000600260159054906101000a900460ff1615610b9d5760019050610ba2565b600090505b90565b600080600080600080600080600260149054906101000a900460ff16151515610bcd57600080fd5b60001515610bd9610b7d565b1515148015610bfb575060011515600260169054906101000a900460ff161515145b1515610c0657600080fd5b67016345785d8a00003410151515610c1d57600080fd5b69021e19e0c9bab24000003411151515610c3657600080fd5b601260ff16600a0a64012a05f20002600754101515610c5457600080fd5b600a60003373ffffffffffffffffffffffffffffffffffffffff1673ffffffffffffffffffffffffffffffffffffffff16815260200190815260200160002060009054906101000a900460ff16965067db44e049bb2c000034101515610cc157861515610cc057600080fd5b5b610ce4600754601260ff16600a0a64012a05f2000261220f90919063ffffffff16565b9550600086111515610cf557600080fd5b610d296003601260ff1660120301600a0a610d1b6003543461222890919063ffffffff16565b61226090919063ffffffff16565b9450610d536064610d456004548861222890919063ffffffff16565b61226090919063ffffffff16565b9350610d68848661227690919063ffffffff16565b9250600083111515610d7957600080fd5b3491506000905085831115610dd757859250610dbf600354610db16003601260ff1660120301600a0a8661222890919063ffffffff16565b61226090919063ffffffff16565b9150610dd4823461220f90919063ffffffff16565b90505b610dec8360075461227690919063ffffffff16565b600781905550600660009054906101000a900473ffffffffffffffffffffffffffffffffffffffff1673ffffffffffffffffffffffffffffffffffffffff1663a9059cbb33856040518363ffffffff167c0100000000000000000000000000000000000000000000000000000000028152600401808373ffffffffffffffffffffffffffffffffffffffff1673ffffffffffffffffffffffffffffffffffffffff16815260200182815260200192505050602060405180830381600087803b158015610eb757600080fd5b505af1158015610ecb573d6000803e3d6000fd5b505050506040513d6020811015610ee157600080fd5b81019080805190602001909291905050501515610efd57600080fd5b6000811115610f4e573373ffffffffffffffffffffffffffffffffffffffff166108fc829081150290604051600060405180830381858888f19350505050158015610f4c573d6000803e3d6000fd5b505b610f75610f64823461220f90919063ffffffff16565b600b5461227690919063ffffffff16565b600b81905550600560009054906101000a900473ffffffffffffffffffffffffffffffffffffffff1673ffffffffffffffffffffffffffffffffffffffff166108fc610fca833461220f90919063ffffffff16565b9081150290604051600060405180830381858888f19350505050158015610ff5573d6000803e3d6000fd5b503373ffffffffffffffffffffffffffffffffffffffff167f0d1a0d5e3d583a0e92588799dd06e50fd78c07daf05f0cc06d7b848b1ca445f1838560075460405180848152602001838152602001828152602001935050505060405180910390a2601260ff16600a0a64012a05f20002600754141561107857611076612292565b505b600197505050505050505090565b6000611091336122fe565b151561109c57600080fd5b600015156110a8610b7d565b15151480156110ca575060001515600260169054906101000a900460ff161515145b15156110d557600080fd5b6001600260166101000a81548160ff0219169083151502179055506001905090565b6000611102336122fe565b151561110d57600080fd5b60001515611119610b7d565b151514801561113b575060001515600260169054906101000a900460ff161515145b151561114657600080fd5b60008211151561115557600080fd5b816003819055507fee386bebbe46d39825c2b93313aa1ab1dc57d4774cac81c6debb8c611c9227ab826040518082815260200191505060405180910390a160019050919050565b600160009054906101000a900473ffffffffffffffffffffffffffffffffffffffff1681565b6003601260ff1660120301600a0a81565b69021e19e0c9bab240000081565b626ebe0081565b60095481565b60006111f9336123b2565b806112095750611208336122fe565b5b151561121457600080fd5b6000809054906101000a900473ffffffffffffffffffffffffffffffffffffffff1673ffffffffffffffffffffffffffffffffffffffff168273ffffffffffffffffffffffffffffffffffffffff161415151561127057600080fd5b3073ffffffffffffffffffffffffffffffffffffffff168273ffffffffffffffffffffffffffffffffffffffff16141515156112ab57600080fd5b6112b482612464565b1515156112c057600080fd5b81600260006101000a81548173ffffffffffffffffffffffffffffffffffffffff021916908373ffffffffffffffffffffffffffffffffffffffff1602179055508173ffffffffffffffffffffffffffffffffffffffff167f17bb0532ac84902a52bb6799529153f5ea501fc54fbcf3ea00dbd42bceb6b0f460405160405180910390a260019050919050565b6000806000151561135c610b7d565b151514801561137e575060011515600260169054906101000a900460ff161515145b151561138957600080fd5b611392336122fe565b151561139d57600080fd5b6004549050826004819055507f29131d02985699a9590e325c18ac3ed2e294f7433d3df9c2b67c15e258d9f5c68184604051808381526020018281526020019250505060405180910390a16001915050919050565b60006113fd336123b2565b8061140d575061140c336122fe565b5b151561141857600080fd5b6000809054906101000a900473ffffffffffffffffffffffffffffffffffffffff1673ffffffffffffffffffffffffffffffffffffffff168273ffffffffffffffffffffffffffffffffffffffff161415151561147457600080fd5b3073ffffffffffffffffffffffffffffffffffffffff168273ffffffffffffffffffffffffffffffffffffffff16141515156114af57600080fd5b6114b8826122fe565b1515156114c457600080fd5b81600160006101000a81548173ffffffffffffffffffffffffffffffffffffffff021916908373ffffffffffffffffffffffffffffffffffffffff1602179055508173ffffffffffffffffffffffffffffffffffffffff167f2cbac2b64384bea29a06e4e8a692a6e5320bfa529be0407a03d41605cb69817360405160405180910390a260019050919050565b601260ff16600a0a64012a05f2000281565b600061156e336122fe565b8061157e575061157d33612464565b5b151561158957600080fd5b600073ffffffffffffffffffffffffffffffffffffffff168273ffffffffffffffffffffffffffffffffffffffff16141515156115c557600080fd5b6115cd610b7d565b1515156115d957600080fd5b6001600a60008473ffffffffffffffffffffffffffffffffffffffff1673ffffffffffffffffffffffffffffffffffffffff16815260200190815260200160002060006101000a81548160ff0219169083151502179055508173ffffffffffffffffffffffffffffffffffffffff167f86eba8651458cc924e4911e8a0a31258558de0474fdc43da05cea932cf130aad60405160405180910390a260019050919050565b6000809054906101000a900473ffffffffffffffffffffffffffffffffffffffff1673ffffffffffffffffffffffffffffffffffffffff163373ffffffffffffffffffffffffffffffffffffffff161415156116d857600080fd5b600260149054906101000a900460ff1615156116f357600080fd5b6000600260146101000a81548160ff0219169083151502179055507f7805862f689e2f13df9f062ff482ad3ad112aca9e0847911ed832e158c525b3360405160405180910390a1565b600b5481565b600061174d336122fe565b151561175857600080fd5b611760612292565b905090565b600560009054906101000a900473ffffffffffffffffffffffffffffffffffffffff1681565b600660009054906101000a900473ffffffffffffffffffffffffffffffffffffffff1681565b67db44e049bb2c000081565b601281565b600260149054906101000a900460ff1681565b60075481565b6000809054906101000a900473ffffffffffffffffffffffffffffffffffffffff1673ffffffffffffffffffffffffffffffffffffffff163373ffffffffffffffffffffffffffffffffffffffff1614151561183657600080fd5b6000809054906101000a900473ffffffffffffffffffffffffffffffffffffffff1673ffffffffffffffffffffffffffffffffffffffff167ff8df31144d9c2f0f6b59d69b8b98abd5459d07f2742c4df920b25aae33c6482060405160405180910390a260008060006101000a81548173ffffffffffffffffffffffffffffffffffffffff021916908373ffffffffffffffffffffffffffffffffffffffff160217905550565b6000806000600260159054906101000a900460ff1615156118fd57600080fd5b611906336122fe565b151561191157600080fd5b600660009054906101000a900473ffffffffffffffffffffffffffffffffffffffff1673ffffffffffffffffffffffffffffffffffffffff166370a08231306040518263ffffffff167c0100000000000000000000000000000000000000000000000000000000028152600401808273ffffffffffffffffffffffffffffffffffffffff1673ffffffffffffffffffffffffffffffffffffffff168152602001915050602060405180830381600087803b1580156119ce57600080fd5b505af11580156119e2573d6000803e3d6000fd5b505050506040513d60208110156119f857600080fd5b81019080805190602001909291905050509150818411151515611a1a57600080fd5b600660009054906101000a900473ffffffffffffffffffffffffffffffffffffffff1673ffffffffffffffffffffffffffffffffffffffff16638da5cb5b6040518163ffffffff167c0100000000000000000000000000000000000000000000000000000000028152600401602060405180830381600087803b158015611aa057600080fd5b505af1158015611ab4573d6000803e3d6000fd5b505050506040513d6020811015611aca57600080fd5b81019080805190602001909291905050509050600073ffffffffffffffffffffffffffffffffffffffff168173ffffffffffffffffffffffffffffffffffffffff1614151515611b1957600080fd5b600660009054906101000a900473ffffffffffffffffffffffffffffffffffffffff1673ffffffffffffffffffffffffffffffffffffffff1663a9059cbb82866040518363ffffffff167c0100000000000000000000000000000000000000000000000000000000028152600401808373ffffffffffffffffffffffffffffffffffffffff1673ffffffffffffffffffffffffffffffffffffffff16815260200182815260200192505050602060405180830381600087803b158015611bde57600080fd5b505af1158015611bf2573d6000803e3d6000fd5b505050506040513d6020811015611c0857600080fd5b81019080805190602001909291905050501515611c2457600080fd5b7fbce3cc672456937708767d1642a17cacb1962753bd5cff46c8dbd377906a6b4b846040518082815260200191505060405180910390a1600192505050919050565b6000806000809054906101000a900473ffffffffffffffffffffffffffffffffffffffff1673ffffffffffffffffffffffffffffffffffffffff163373ffffffffffffffffffffffffffffffffffffffff16141515611cc457600080fd5b6000600754141515611cd557600080fd5b6000600854141515611ce657600080fd5b6000600954141515611cf757600080fd5b600660009054906101000a900473ffffffffffffffffffffffffffffffffffffffff1673ffffffffffffffffffffffffffffffffffffffff166370a08231306040518263ffffffff167c0100000000000000000000000000000000000000000000000000000000028152600401808273ffffffffffffffffffffffffffffffffffffffff1673ffffffffffffffffffffffffffffffffffffffff168152602001915050602060405180830381600087803b158015611db457600080fd5b505af1158015611dc8573d6000803e3d6000fd5b505050506040513d6020811015611dde57600080fd5b81019080805190602001909291905050509050601260ff16600a0a64012a05f2000281141515611e0d57600080fd5b7f5daa87a0e9463431830481fd4b6e3403442dfb9a12b9c07597e9f61d50b633c860405160405180910390a1600191505090565b6000809054906101000a900473ffffffffffffffffffffffffffffffffffffffff1673ffffffffffffffffffffffffffffffffffffffff163373ffffffffffffffffffffffffffffffffffffffff16141515611e9c57600080fd5b600260149054906101000a900460ff16151515611eb857600080fd5b6001600260146101000a81548160ff0219169083151502179055507f6985a02210a168e66602d3235cb6db0e70f92b3ba4d376a33c0f3d9434bff62560405160405180910390a1565b601260ff16600a0a81565b6000809054906101000a900473ffffffffffffffffffffffffffffffffffffffff1681565b6000611f3c336122fe565b1515611f4757600080fd5b600073ffffffffffffffffffffffffffffffffffffffff168273ffffffffffffffffffffffffffffffffffffffff1614151515611f8357600080fd5b3073ffffffffffffffffffffffffffffffffffffffff168273ffffffffffffffffffffffffffffffffffffffff1614151515611fbe57600080fd5b600660009054906101000a900473ffffffffffffffffffffffffffffffffffffffff1673ffffffffffffffffffffffffffffffffffffffff168273ffffffffffffffffffffffffffffffffffffffff161415151561201b57600080fd5b81600560006101000a81548173ffffffffffffffffffffffffffffffffffffffff021916908373ffffffffffffffffffffffffffffffffffffffff1602179055507f3ce716f94fe275e52428cbf6b7f388e5a65976d4edabc34355a77f5e89655bdc600560009054906101000a900473ffffffffffffffffffffffffffffffffffffffff16604051808273ffffffffffffffffffffffffffffffffffffffff1673ffffffffffffffffffffffffffffffffffffffff16815260200191505060405180910390a160019050919050565b600a6020528060005260406000206000915054906101000a900460ff1681565b60085481565b601260ff16600a0a64012a05f2000281565b600260169054906101000a900460ff1681565b60035481565b601260ff16600a0a6402540be4000281565b60045481565b600260159054906101000a900460ff1681565b67016345785d8a000081565b600042905090565b6000809054906101000a900473ffffffffffffffffffffffffffffffffffffffff1673ffffffffffffffffffffffffffffffffffffffff163373ffffffffffffffffffffffffffffffffffffffff161415156121d557600080fd5b6121de81612518565b50565b6306422c4081565b600260009054906101000a900473ffffffffffffffffffffffffffffffffffffffff1681565b600082821115151561221d57fe5b818303905092915050565b60008083141561223b576000905061225a565b818302905081838281151561224c57fe5b0414151561225657fe5b8090505b92915050565b6000818381151561226d57fe5b04905092915050565b6000818301905082811015151561228957fe5b80905092915050565b6000600260159054906101000a900460ff161515156122b057600080fd5b6001600260156101000a81548160ff0219169083151502179055507f6823b073d48d6e3a7d385eeb601452d680e74bb46afe3255a7d778f3a9b1768160405160405180910390a16001905090565b60008073ffffffffffffffffffffffffffffffffffffffff16600260009054906101000a900473ffffffffffffffffffffffffffffffffffffffff1673ffffffffffffffffffffffffffffffffffffffff16141580156123ab5750600260009054906101000a900473ffffffffffffffffffffffffffffffffffffffff1673ffffffffffffffffffffffffffffffffffffffff168273ffffffffffffffffffffffffffffffffffffffff16145b9050919050565b60008073ffffffffffffffffffffffffffffffffffffffff166000809054906101000a900473ffffffffffffffffffffffffffffffffffffffff1673ffffffffffffffffffffffffffffffffffffffff161415801561245d57506000809054906101000a900473ffffffffffffffffffffffffffffffffffffffff1673ffffffffffffffffffffffffffffffffffffffff168273ffffffffffffffffffffffffffffffffffffffff16145b9050919050565b60008073ffffffffffffffffffffffffffffffffffffffff16600160009054906101000a900473ffffffffffffffffffffffffffffffffffffffff1673ffffffffffffffffffffffffffffffffffffffff16141580156125115750600160009054906101000a900473ffffffffffffffffffffffffffffffffffffffff1673ffffffffffffffffffffffffffffffffffffffff168273ffffffffffffffffffffffffffffffffffffffff16145b9050919050565b600073ffffffffffffffffffffffffffffffffffffffff168173ffffffffffffffffffffffffffffffffffffffff161415151561255457600080fd5b8073ffffffffffffffffffffffffffffffffffffffff166000809054906101000a900473ffffffffffffffffffffffffffffffffffffffff1673ffffffffffffffffffffffffffffffffffffffff167f8be0079c531659141344cd1fd0a4f28419497f9722a3daafe3b4186f6b6457e060405160405180910390a3806000806101000a81548173ffffffffffffffffffffffffffffffffffffffff021916908373ffffffffffffffffffffffffffffffffffffffff160217905550505600a165627a7a72305820a94cfdbbc4cb28e77ba3acac5aabc7ef3ecff4dd80fe8f4aa6be7a6644cdd62c0029",
  "source": "pragma solidity ^0.4.23;\r\n\r\nimport \"./JSEToken.sol\";\r\nimport \"./JSECoinCrowdsaleConfig.sol\";\r\nimport \"./OperatorManaged.sol\";\r\nimport \"openzeppelin-solidity/contracts/lifecycle/Pausable.sol\";\r\nimport \"openzeppelin-solidity/contracts/math/SafeMath.sol\";\r\n\r\n\r\n//\r\n// Implementation of the token sale of JSE Token\r\n//\r\n// * Lifecycle *\r\n// Initialization sequence should be as follow:\r\n//    1. Deploy JSEToken contract\r\n//    2. Deploy JSETokenSale contract\r\n//    3. Set operationsAddress of JSEToken contract to JSETokenSale contract\r\n//    4. Transfer tokens from owner to JSETokenSale contract\r\n//    5. Transfer tokens from owner to Distributer Account\r\n//    6. Initialize JSETokenSale contract\r\n//\r\n// Pre-sale sequence:\r\n//    - Set tokensPerKEther\r\n//    - Update whitelist\r\n//    - Start public sale\r\n//\r\n// After-sale sequence:\r\n//    1. Finalize the JSETokenSale contract\r\n//    2. Finalize the JSEToken contract\r\n//    3. Set operationsAddress of JSETokenSale contract to 0\r\n//    4. Set operationsAddress of JSEToken contract to 0\r\n\r\n\r\ncontract JSETokenSale is OperatorManaged, Pausable, JSECoinCrowdsaleConfig { // Pausable is also Owned\r\n\r\n    using SafeMath for uint256;\r\n\r\n\r\n    // We keep track of whether the sale has been finalized, at which point\r\n    // no additional contributions will be permitted.\r\n    bool public finalized;\r\n\r\n    // Public Sales start trigger\r\n    bool public publicSaleStarted;\r\n\r\n    // Number of tokens per 1000 ETH. See JSETokenSaleConfig for details.\r\n    uint256 public tokensPerKEther;\r\n\r\n    // Increase Percentage Bonus of buying tokens\r\n    uint256 public bonusIncreasePercentage = 10; //percentage\r\n\r\n    // Address where the funds collected during the sale will be forwarded.\r\n    address public wallet;\r\n\r\n    // Token contract that the sale contract will interact with.\r\n    JSEToken public tokenContract;\r\n\r\n    // // JSETrustee contract to hold on token balances. The following token pools will be held by trustee:\r\n    // //    - Founders\r\n    // //    - Advisors\r\n    // //    - Early investors\r\n    // //    - Presales\r\n    // address private distributerAccount;\r\n\r\n    // Total amount of tokens sold during presale + public sale. Excludes pre-sale bonuses.\r\n    uint256 public totalTokensSold;\r\n\r\n    // Total amount of tokens given as bonus during presale. Will influence accelerator token balance.\r\n    uint256 public totalPresaleBase;\r\n    uint256 public totalPresaleBonus;\r\n\r\n    // Map of addresses that have been whitelisted in advance (and passed KYC).\r\n    mapping(address => bool) public whitelist;\r\n\r\n    // Amount of wei raised\r\n    uint256 public weiRaised;\r\n\r\n    //\r\n    // EVENTS\r\n    //\r\n    event Initialized();\r\n    event PresaleAdded(address indexed _account, uint256 _baseTokens, uint256 _bonusTokens);\r\n    event WhitelistUpdated(address indexed _account);\r\n    event TokensPurchased(address indexed _beneficiary, uint256 _cost, uint256 _tokens, uint256 _totalSold);\r\n    event TokensPerKEtherUpdated(uint256 _amount);\r\n    event WalletChanged(address _newWallet);\r\n    event TokensReclaimed(uint256 _amount);\r\n    event UnsoldTokensBurnt(uint256 _amount);\r\n    event BonusIncreasePercentageChanged(uint256 _oldPercentage, uint256 _newPercentage);\r\n    event Finalized();\r\n\r\n\r\n    constructor(JSEToken _tokenContract, address _wallet) public\r\n        OperatorManaged()\r\n    {\r\n        require(address(_tokenContract) != address(0));\r\n        //  require(address(_distributerAccount) != address(0));\r\n        require(_wallet != address(0));\r\n\r\n        require(TOKENS_PER_KETHER > 0);\r\n\r\n\r\n        wallet                  = _wallet;\r\n        finalized               = false;\r\n        publicSaleStarted       = false;\r\n        tokensPerKEther         = TOKENS_PER_KETHER;\r\n        tokenContract           = _tokenContract;\r\n        //distributerAccount      = _distributerAccount;\r\n    }\r\n\r\n\r\n    // Initialize is called to check some configuration parameters.\r\n    // It expects that a certain amount of tokens have already been assigned to the sale contract address.\r\n    function initialize() external onlyOwner returns (bool) {\r\n        require(totalTokensSold == 0);\r\n        require(totalPresaleBase == 0);\r\n        require(totalPresaleBonus == 0);\r\n\r\n        uint256 ownBalance = tokenContract.balanceOf(address(this));\r\n        require(ownBalance == TOKENS_SALE);\r\n\r\n        emit Initialized();\r\n\r\n        return true;\r\n    }\r\n\r\n\r\n    // Allows the admin to change the wallet where ETH contributions are sent.\r\n    function changeWallet(address _wallet) external onlyAdmin returns (bool) {\r\n        require(_wallet != address(0));\r\n        require(_wallet != address(this));\r\n        // require(_wallet != address(distributerAccount));\r\n        require(_wallet != address(tokenContract));\r\n\r\n        wallet = _wallet;\r\n\r\n        emit WalletChanged(wallet);\r\n\r\n        return true;\r\n    }\r\n\r\n\r\n\r\n    //\r\n    // TIME\r\n    //\r\n\r\n    function currentTime() public view returns (uint256 _currentTime) {\r\n        return now;\r\n    }\r\n\r\n\r\n    modifier onlyBeforeSale() {\r\n        require(hasSaleEnded() == false && publicSaleStarted == false);\r\n        _;\r\n    }\r\n\r\n\r\n    modifier onlyDuringSale() {\r\n        require(hasSaleEnded() == false && publicSaleStarted == true);\r\n        _;\r\n    }\r\n\r\n    modifier onlyAfterSale() {\r\n        // require finalized is stronger than hasSaleEnded\r\n        require(finalized);\r\n        _;\r\n    }\r\n\r\n\r\n    function hasSaleEnded() private view returns (bool) {\r\n        // if sold out or finalized, sale has ended\r\n        if (finalized) {\r\n            return true;\r\n        } else {\r\n            return false;\r\n        }\r\n    }\r\n\r\n\r\n\r\n    //\r\n    // WHITELIST\r\n    //\r\n\r\n    // Allows operator to add accounts to the whitelist.\r\n    // Only those accounts will be allowed to contribute above the threshold\r\n    function updateWhitelist(address _account) external onlyAdminOrOperator returns (bool) {\r\n        require(_account != address(0));\r\n        require(!hasSaleEnded());\r\n\r\n        whitelist[_account] = true;\r\n\r\n        emit WhitelistUpdated(_account);\r\n\r\n        return true;\r\n    }\r\n\r\n    //\r\n    // PURCHASES / CONTRIBUTIONS\r\n    //\r\n\r\n    // Allows the admin to set the price for tokens sold during phases 1 and 2 of the sale.\r\n    function setTokensPerKEther(uint256 _tokensPerKEther) external onlyAdmin onlyBeforeSale returns (bool) {\r\n        require(_tokensPerKEther > 0);\r\n\r\n        tokensPerKEther = _tokensPerKEther;\r\n\r\n        emit TokensPerKEtherUpdated(_tokensPerKEther);\r\n\r\n        return true;\r\n    }\r\n\r\n\r\n    function () external payable whenNotPaused onlyDuringSale {\r\n        buyTokens();\r\n    }\r\n\r\n\r\n    // This is the main function to process incoming ETH contributions.\r\n    function buyTokens() public payable whenNotPaused onlyDuringSale returns (bool) {\r\n        require(msg.value >= CONTRIBUTION_MIN);\r\n        require(msg.value <= CONTRIBUTION_MAX);\r\n        require(totalTokensSold < TOKENS_SALE);\r\n\r\n        // All accounts need to be whitelisted to purchase.\r\n        bool whitelisted = whitelist[msg.sender];\r\n        if(msg.value >= CONTRIBUTION_MAX_NO_WHITELIST){\r\n            require(whitelisted);\r\n        }\r\n\r\n        uint256 tokensMax = TOKENS_SALE.sub(totalTokensSold);\r\n\r\n        require(tokensMax > 0);\r\n        \r\n        uint256 actualAmount = msg.value.mul(tokensPerKEther).div(PURCHASE_DIVIDER);\r\n\r\n        uint256 bonusAmount = actualAmount.mul(bonusIncreasePercentage).div(100);\r\n\r\n        uint256 tokensBought = actualAmount.add(bonusAmount);\r\n\r\n        require(tokensBought > 0);\r\n\r\n        uint256 cost = msg.value;\r\n        uint256 refund = 0;\r\n\r\n        if (tokensBought > tokensMax) {\r\n            // Not enough tokens available for full contribution, we will do partial.\r\n            tokensBought = tokensMax;\r\n\r\n            // Calculate actual cost for partial amount of tokens.\r\n            cost = tokensBought.mul(PURCHASE_DIVIDER).div(tokensPerKEther);\r\n\r\n            // Calculate refund for contributor.\r\n            refund = msg.value.sub(cost);\r\n        }\r\n\r\n        totalTokensSold = totalTokensSold.add(tokensBought);\r\n\r\n        // Transfer tokens to the account\r\n        require(tokenContract.transfer(msg.sender, tokensBought));\r\n\r\n        // Issue a ETH refund for any unused portion of the funds.\r\n        if (refund > 0) {\r\n            msg.sender.transfer(refund);\r\n        }\r\n\r\n        // update state\r\n        weiRaised = weiRaised.add(msg.value.sub(refund));\r\n\r\n        // Transfer the contribution to the wallet\r\n        wallet.transfer(msg.value.sub(refund));\r\n\r\n        emit TokensPurchased(msg.sender, cost, tokensBought, totalTokensSold);\r\n\r\n        // If all tokens available for sale have been sold out, finalize the sale automatically.\r\n        if (totalTokensSold == TOKENS_SALE) {\r\n            finalizeInternal();\r\n        }\r\n\r\n        return true;\r\n    }\r\n\r\n\r\n\r\n    // Allows the admin to move bonus tokens still available in the sale contract\r\n    // out before burning all remaining unsold tokens in burnUnsoldTokens().\r\n    // Used to distribute bonuses to token sale participants when the sale has ended\r\n    // and all bonuses are known.\r\n    function reclaimTokens(uint256 _amount) external onlyAfterSale onlyAdmin returns (bool) {\r\n        uint256 ownBalance = tokenContract.balanceOf(address(this));\r\n        require(_amount <= ownBalance);\r\n        \r\n        address tokenOwner = tokenContract.owner();\r\n        require(tokenOwner != address(0));\r\n\r\n        require(tokenContract.transfer(tokenOwner, _amount));\r\n\r\n        emit TokensReclaimed(_amount);\r\n\r\n        return true;\r\n    }\r\n\r\n    function changeBonusIncreasePercentage(uint256 _newPercentage) external onlyDuringSale onlyAdmin returns (bool) {\r\n        uint oldPercentage = bonusIncreasePercentage;\r\n        bonusIncreasePercentage = _newPercentage;\r\n        emit BonusIncreasePercentageChanged(oldPercentage, _newPercentage);\r\n        return true;\r\n    }\r\n\r\n    // Allows the admin to finalize the sale and complete allocations.\r\n    // The JSEToken.admin also needs to finalize the token contract\r\n    // so that token transfers are enabled.\r\n    function finalize() external onlyAdmin returns (bool) {\r\n        return finalizeInternal();\r\n    }\r\n\r\n    function startPublicSale() external onlyAdmin onlyBeforeSale returns (bool) {\r\n        publicSaleStarted = true;\r\n        return true;\r\n    }\r\n\r\n\r\n    // The internal one will be called if tokens are sold out or\r\n    // the end time for the sale is reached, in addition to being called\r\n    // from the public version of finalize().\r\n    function finalizeInternal() private returns (bool) {\r\n        require(!finalized);\r\n\r\n        finalized = true;\r\n\r\n        emit Finalized();\r\n\r\n        return true;\r\n    }\r\n}\r\n",
  "sourcePath": "C:\\work\\jsecoin\\github\\contract\\contracts\\JSETokenSale.sol",
  "compiler": {
    "name": "solc",
    "version": "0.4.24+commit.e67f0147.Emscripten.clang"
  },
  "schemaVersion": "2.0.0",
  "updatedAt": "2018-06-13T10:04:31.490Z"
}